{
    "_format": "hh-sol-artifact-1",
    "contractName": "NFT",
    "sourceName": "contracts/NFT.sol",
    "abi": [
        {
            "inputs": [],
            "stateMutability": "nonpayable",
            "type": "constructor"
        },
        {
            "inputs": [
                {
                    "internalType": "address",
                    "name": "sender",
                    "type": "address"
                },
                {
                    "internalType": "uint256",
                    "name": "tokenId",
                    "type": "uint256"
                },
                {
                    "internalType": "address",
                    "name": "owner",
                    "type": "address"
                }
            ],
            "name": "ERC721IncorrectOwner",
            "type": "error"
        },
        {
            "inputs": [
                {
                    "internalType": "address",
                    "name": "operator",
                    "type": "address"
                },
                {
                    "internalType": "uint256",
                    "name": "tokenId",
                    "type": "uint256"
                }
            ],
            "name": "ERC721InsufficientApproval",
            "type": "error"
        },
        {
            "inputs": [
                {
                    "internalType": "address",
                    "name": "approver",
                    "type": "address"
                }
            ],
            "name": "ERC721InvalidApprover",
            "type": "error"
        },
        {
            "inputs": [
                {
                    "internalType": "address",
                    "name": "operator",
                    "type": "address"
                }
            ],
            "name": "ERC721InvalidOperator",
            "type": "error"
        },
        {
            "inputs": [
                {
                    "internalType": "address",
                    "name": "owner",
                    "type": "address"
                }
            ],
            "name": "ERC721InvalidOwner",
            "type": "error"
        },
        {
            "inputs": [
                {
                    "internalType": "address",
                    "name": "receiver",
                    "type": "address"
                }
            ],
            "name": "ERC721InvalidReceiver",
            "type": "error"
        },
        {
            "inputs": [
                {
                    "internalType": "address",
                    "name": "sender",
                    "type": "address"
                }
            ],
            "name": "ERC721InvalidSender",
            "type": "error"
        },
        {
            "inputs": [
                {
                    "internalType": "uint256",
                    "name": "tokenId",
                    "type": "uint256"
                }
            ],
            "name": "ERC721NonexistentToken",
            "type": "error"
        },
        {
            "inputs": [
                {
                    "internalType": "address",
                    "name": "owner",
                    "type": "address"
                }
            ],
            "name": "OwnableInvalidOwner",
            "type": "error"
        },
        {
            "inputs": [
                {
                    "internalType": "address",
                    "name": "account",
                    "type": "address"
                }
            ],
            "name": "OwnableUnauthorizedAccount",
            "type": "error"
        },
        {
            "anonymous": false,
            "inputs": [
                {
                    "indexed": true,
                    "internalType": "address",
                    "name": "owner",
                    "type": "address"
                },
                {
                    "indexed": true,
                    "internalType": "address",
                    "name": "approved",
                    "type": "address"
                },
                {
                    "indexed": true,
                    "internalType": "uint256",
                    "name": "tokenId",
                    "type": "uint256"
                }
            ],
            "name": "Approval",
            "type": "event"
        },
        {
            "anonymous": false,
            "inputs": [
                {
                    "indexed": true,
                    "internalType": "address",
                    "name": "owner",
                    "type": "address"
                },
                {
                    "indexed": true,
                    "internalType": "address",
                    "name": "operator",
                    "type": "address"
                },
                {
                    "indexed": false,
                    "internalType": "bool",
                    "name": "approved",
                    "type": "bool"
                }
            ],
            "name": "ApprovalForAll",
            "type": "event"
        },
        {
            "anonymous": false,
            "inputs": [
                {
                    "indexed": true,
                    "internalType": "address",
                    "name": "previousOwner",
                    "type": "address"
                },
                {
                    "indexed": true,
                    "internalType": "address",
                    "name": "newOwner",
                    "type": "address"
                }
            ],
            "name": "OwnershipTransferred",
            "type": "event"
        },
        {
            "anonymous": false,
            "inputs": [
                {
                    "indexed": true,
                    "internalType": "address",
                    "name": "from",
                    "type": "address"
                },
                {
                    "indexed": true,
                    "internalType": "address",
                    "name": "to",
                    "type": "address"
                },
                {
                    "indexed": true,
                    "internalType": "uint256",
                    "name": "tokenId",
                    "type": "uint256"
                }
            ],
            "name": "Transfer",
            "type": "event"
        },
        {
            "inputs": [],
            "name": "MAX_SUPPLY",
            "outputs": [
                {
                    "internalType": "uint256",
                    "name": "",
                    "type": "uint256"
                }
            ],
            "stateMutability": "view",
            "type": "function"
        },
        {
            "inputs": [
                {
                    "internalType": "address",
                    "name": "to",
                    "type": "address"
                },
                {
                    "internalType": "uint256",
                    "name": "tokenId",
                    "type": "uint256"
                }
            ],
            "name": "approve",
            "outputs": [],
            "stateMutability": "nonpayable",
            "type": "function"
        },
        {
            "inputs": [
                {
                    "internalType": "address",
                    "name": "owner",
                    "type": "address"
                }
            ],
            "name": "balanceOf",
            "outputs": [
                {
                    "internalType": "uint256",
                    "name": "",
                    "type": "uint256"
                }
            ],
            "stateMutability": "view",
            "type": "function"
        },
        {
            "inputs": [
                {
                    "internalType": "uint256",
                    "name": "tokenId",
                    "type": "uint256"
                }
            ],
            "name": "burn",
            "outputs": [],
            "stateMutability": "nonpayable",
            "type": "function"
        },
        {
            "inputs": [
                {
                    "internalType": "uint256",
                    "name": "tokenId",
                    "type": "uint256"
                }
            ],
            "name": "getApproved",
            "outputs": [
                {
                    "internalType": "address",
                    "name": "",
                    "type": "address"
                }
            ],
            "stateMutability": "view",
            "type": "function"
        },
        {
            "inputs": [
                {
                    "internalType": "address",
                    "name": "owner",
                    "type": "address"
                },
                {
                    "internalType": "address",
                    "name": "operator",
                    "type": "address"
                }
            ],
            "name": "isApprovedForAll",
            "outputs": [
                {
                    "internalType": "bool",
                    "name": "",
                    "type": "bool"
                }
            ],
            "stateMutability": "view",
            "type": "function"
        },
        {
            "inputs": [],
            "name": "mintNFT",
            "outputs": [
                {
                    "internalType": "uint256",
                    "name": "",
                    "type": "uint256"
                }
            ],
            "stateMutability": "nonpayable",
            "type": "function"
        },
        {
            "inputs": [],
            "name": "mintingPaused",
            "outputs": [
                {
                    "internalType": "bool",
                    "name": "",
                    "type": "bool"
                }
            ],
            "stateMutability": "view",
            "type": "function"
        },
        {
            "inputs": [],
            "name": "name",
            "outputs": [
                {
                    "internalType": "string",
                    "name": "",
                    "type": "string"
                }
            ],
            "stateMutability": "view",
            "type": "function"
        },
        {
            "inputs": [],
            "name": "owner",
            "outputs": [
                {
                    "internalType": "address",
                    "name": "",
                    "type": "address"
                }
            ],
            "stateMutability": "view",
            "type": "function"
        },
        {
            "inputs": [
                {
                    "internalType": "uint256",
                    "name": "tokenId",
                    "type": "uint256"
                }
            ],
            "name": "ownerOf",
            "outputs": [
                {
                    "internalType": "address",
                    "name": "",
                    "type": "address"
                }
            ],
            "stateMutability": "view",
            "type": "function"
        },
        {
            "inputs": [],
            "name": "pauseMinting",
            "outputs": [],
            "stateMutability": "nonpayable",
            "type": "function"
        },
        {
            "inputs": [],
            "name": "renounceOwnership",
            "outputs": [],
            "stateMutability": "nonpayable",
            "type": "function"
        },
        {
            "inputs": [
                {
                    "internalType": "address",
                    "name": "from",
                    "type": "address"
                },
                {
                    "internalType": "address",
                    "name": "to",
                    "type": "address"
                },
                {
                    "internalType": "uint256",
                    "name": "tokenId",
                    "type": "uint256"
                }
            ],
            "name": "safeTransferFrom",
            "outputs": [],
            "stateMutability": "nonpayable",
            "type": "function"
        },
        {
            "inputs": [
                {
                    "internalType": "address",
                    "name": "from",
                    "type": "address"
                },
                {
                    "internalType": "address",
                    "name": "to",
                    "type": "address"
                },
                {
                    "internalType": "uint256",
                    "name": "tokenId",
                    "type": "uint256"
                },
                {
                    "internalType": "bytes",
                    "name": "data",
                    "type": "bytes"
                }
            ],
            "name": "safeTransferFrom",
            "outputs": [],
            "stateMutability": "nonpayable",
            "type": "function"
        },
        {
            "inputs": [
                {
                    "internalType": "address",
                    "name": "operator",
                    "type": "address"
                },
                {
                    "internalType": "bool",
                    "name": "approved",
                    "type": "bool"
                }
            ],
            "name": "setApprovalForAll",
            "outputs": [],
            "stateMutability": "nonpayable",
            "type": "function"
        },
        {
            "inputs": [
                {
                    "internalType": "uint256",
                    "name": "tokenId",
                    "type": "uint256"
                },
                {
                    "internalType": "string",
                    "name": "_tokenURI",
                    "type": "string"
                }
            ],
            "name": "setTokenURI",
            "outputs": [],
            "stateMutability": "nonpayable",
            "type": "function"
        },
        {
            "inputs": [
                {
                    "internalType": "bytes4",
                    "name": "interfaceId",
                    "type": "bytes4"
                }
            ],
            "name": "supportsInterface",
            "outputs": [
                {
                    "internalType": "bool",
                    "name": "",
                    "type": "bool"
                }
            ],
            "stateMutability": "view",
            "type": "function"
        },
        {
            "inputs": [],
            "name": "symbol",
            "outputs": [
                {
                    "internalType": "string",
                    "name": "",
                    "type": "string"
                }
            ],
            "stateMutability": "view",
            "type": "function"
        },
        {
            "inputs": [],
            "name": "tokenCounter",
            "outputs": [
                {
                    "internalType": "uint256",
                    "name": "",
                    "type": "uint256"
                }
            ],
            "stateMutability": "view",
            "type": "function"
        },
        {
            "inputs": [
                {
                    "internalType": "uint256",
                    "name": "tokenId",
                    "type": "uint256"
                }
            ],
            "name": "tokenURI",
            "outputs": [
                {
                    "internalType": "string",
                    "name": "",
                    "type": "string"
                }
            ],
            "stateMutability": "view",
            "type": "function"
        },
        {
            "inputs": [
                {
                    "internalType": "address",
                    "name": "from",
                    "type": "address"
                },
                {
                    "internalType": "address",
                    "name": "to",
                    "type": "address"
                },
                {
                    "internalType": "uint256",
                    "name": "tokenId",
                    "type": "uint256"
                }
            ],
            "name": "transferFrom",
            "outputs": [],
            "stateMutability": "nonpayable",
            "type": "function"
        },
        {
            "inputs": [
                {
                    "internalType": "address",
                    "name": "newOwner",
                    "type": "address"
                }
            ],
            "name": "transferOwnership",
            "outputs": [],
            "stateMutability": "nonpayable",
            "type": "function"
        },
        {
            "inputs": [],
            "name": "unpauseMinting",
            "outputs": [],
            "stateMutability": "nonpayable",
            "type": "function"
        },
        {
            "inputs": [],
            "name": "withdrawFunds",
            "outputs": [],
            "stateMutability": "nonpayable",
            "type": "function"
        }
    ],
    "bytecode": "0x608060405234801561001057600080fd5b50336040518060400160405280601181526020017f456e646c657373205363726f6c6c2031300000000000000000000000000000008152506040518060400160405280600381526020017f5343520000000000000000000000000000000000000000000000000000000000815250816000908161008d9190610460565b50806001908161009d9190610460565b505050600073ffffffffffffffffffffffffffffffffffffffff168173ffffffffffffffffffffffffffffffffffffffff16036101125760006040517f1e4fbdf70000000000000000000000000000000000000000000000000000000081526004016101099190610573565b60405180910390fd5b6101218161014a60201b60201c565b5060006007819055506000600960006101000a81548160ff02191690831515021790555061058e565b6000600660009054906101000a900473ffffffffffffffffffffffffffffffffffffffff16905081600660006101000a81548173ffffffffffffffffffffffffffffffffffffffff021916908373ffffffffffffffffffffffffffffffffffffffff1602179055508173ffffffffffffffffffffffffffffffffffffffff168173ffffffffffffffffffffffffffffffffffffffff167f8be0079c531659141344cd1fd0a4f28419497f9722a3daafe3b4186f6b6457e060405160405180910390a35050565b600081519050919050565b7f4e487b7100000000000000000000000000000000000000000000000000000000600052604160045260246000fd5b7f4e487b7100000000000000000000000000000000000000000000000000000000600052602260045260246000fd5b6000600282049050600182168061029157607f821691505b6020821081036102a4576102a361024a565b5b50919050565b60008190508160005260206000209050919050565b60006020601f8301049050919050565b600082821b905092915050565b60006008830261030c7fffffffffffffffffffffffffffffffffffffffffffffffffffffffffffffffff826102cf565b61031686836102cf565b95508019841693508086168417925050509392505050565b6000819050919050565b6000819050919050565b600061035d6103586103538461032e565b610338565b61032e565b9050919050565b6000819050919050565b61037783610342565b61038b61038382610364565b8484546102dc565b825550505050565b600090565b6103a0610393565b6103ab81848461036e565b505050565b5b818110156103cf576103c4600082610398565b6001810190506103b1565b5050565b601f821115610414576103e5816102aa565b6103ee846102bf565b810160208510156103fd578190505b610411610409856102bf565b8301826103b0565b50505b505050565b600082821c905092915050565b600061043760001984600802610419565b1980831691505092915050565b60006104508383610426565b9150826002028217905092915050565b61046982610210565b67ffffffffffffffff8111156104825761048161021b565b5b61048c8254610279565b6104978282856103d3565b600060209050601f8311600181146104ca57600084156104b8578287015190505b6104c28582610444565b86555061052a565b601f1984166104d8866102aa565b60005b82811015610500578489015182556001820191506020850194506020810190506104db565b8683101561051d5784890151610519601f891682610426565b8355505b6001600288020188555050505b505050505050565b600073ffffffffffffffffffffffffffffffffffffffff82169050919050565b600061055d82610532565b9050919050565b61056d81610552565b82525050565b60006020820190506105886000830184610564565b92915050565b6127528061059d6000396000f3fe608060405234801561001057600080fd5b50600436106101735760003560e01c806370a08231116100de578063b88d4fde11610097578063da8fbf2a11610071578063da8fbf2a146103fe578063e1a283d614610408578063e985e9c514610426578063f2fde38b1461045657610173565b8063b88d4fde14610394578063c87b56dd146103b0578063d082e381146103e057610173565b806370a08231146102f8578063715018a6146103285780638da5cb5b1461033257806395d89b4114610350578063a22cb4651461036e578063ae2003221461038a57610173565b806323b872dd1161013057806323b872dd1461024c57806324600fc31461026857806332cb6b0c1461027257806342842e0e1461029057806342966c68146102ac5780636352211e146102c857610173565b806301ffc9a71461017857806306fdde03146101a8578063081812fc146101c6578063095ea7b3146101f657806314f710fe14610212578063162094c414610230575b600080fd5b610192600480360381019061018d9190611b09565b610472565b60405161019f9190611b51565b60405180910390f35b6101b0610554565b6040516101bd9190611bfc565b60405180910390f35b6101e060048036038101906101db9190611c54565b6105e6565b6040516101ed9190611cc2565b60405180910390f35b610210600480360381019061020b9190611d09565b610602565b005b61021a610618565b6040516102279190611d58565b60405180910390f35b61024a60048036038101906102459190611ea8565b610654565b005b61026660048036038101906102619190611f04565b6106f8565b005b6102706107fa565b005b61027a61089b565b6040516102879190611d58565b60405180910390f35b6102aa60048036038101906102a59190611f04565b6108a1565b005b6102c660048036038101906102c19190611c54565b6108c1565b005b6102e260048036038101906102dd9190611c54565b61091f565b6040516102ef9190611cc2565b60405180910390f35b610312600480360381019061030d9190611f57565b610931565b60405161031f9190611d58565b60405180910390f35b6103306109eb565b005b61033a6109ff565b6040516103479190611cc2565b60405180910390f35b610358610a29565b6040516103659190611bfc565b60405180910390f35b61038860048036038101906103839190611fb0565b610abb565b005b610392610ad1565b005b6103ae60048036038101906103a99190612091565b610af6565b005b6103ca60048036038101906103c59190611c54565b610b13565b6040516103d79190611bfc565b60405180910390f35b6103e8610c2f565b6040516103f59190611d58565b60405180910390f35b610406610c35565b005b610410610c5a565b60405161041d9190611b51565b60405180910390f35b610440600480360381019061043b9190612114565b610c6d565b60405161044d9190611b51565b60405180910390f35b610470600480360381019061046b9190611f57565b610d01565b005b60007f80ac58cd000000000000000000000000000000000000000000000000000000007bffffffffffffffffffffffffffffffffffffffffffffffffffffffff1916827bffffffffffffffffffffffffffffffffffffffffffffffffffffffff1916148061053d57507f5b5e139f000000000000000000000000000000000000000000000000000000007bffffffffffffffffffffffffffffffffffffffffffffffffffffffff1916827bffffffffffffffffffffffffffffffffffffffffffffffffffffffff1916145b8061054d575061054c82610d87565b5b9050919050565b60606000805461056390612183565b80601f016020809104026020016040519081016040528092919081815260200182805461058f90612183565b80156105dc5780601f106105b1576101008083540402835291602001916105dc565b820191906000526020600020905b8154815290600101906020018083116105bf57829003601f168201915b5050505050905090565b60006105f182610df1565b506105fb82610e79565b9050919050565b610614828261060f610eb6565b610ebe565b5050565b6000610622610ed0565b600060075490506106333382610f57565b60016007600082825461064691906121e3565b925050819055508091505090565b61065c610ed0565b600073ffffffffffffffffffffffffffffffffffffffff1661067d83610f75565b73ffffffffffffffffffffffffffffffffffffffff16036106d3576040517f08c379a00000000000000000000000000000000000000000000000000000000081526004016106ca90612263565b60405180910390fd5b806008600084815260200190815260200160002090816106f3919061242f565b505050565b600073ffffffffffffffffffffffffffffffffffffffff168273ffffffffffffffffffffffffffffffffffffffff160361076a5760006040517f64a0ae920000000000000000000000000000000000000000000000000000000081526004016107619190611cc2565b60405180910390fd5b600061077e8383610779610eb6565b610fb2565b90508373ffffffffffffffffffffffffffffffffffffffff168173ffffffffffffffffffffffffffffffffffffffff16146107f4578382826040517f64283d7b0000000000000000000000000000000000000000000000000000000081526004016107eb93929190612501565b60405180910390fd5b50505050565b610802610ed0565b60004790506000811161084a576040517f08c379a000000000000000000000000000000000000000000000000000000000815260040161084190612584565b60405180910390fd5b6108526109ff565b73ffffffffffffffffffffffffffffffffffffffff166108fc829081150290604051600060405180830381858888f19350505050158015610897573d6000803e3d6000fd5b5050565b6103e881565b6108bc83838360405180602001604052806000815250610af6565b505050565b6108d46108cd82610f75565b33836111cc565b610913576040517f08c379a000000000000000000000000000000000000000000000000000000000815260040161090a906125f0565b60405180910390fd5b61091c8161128d565b50565b600061092a82610df1565b9050919050565b60008073ffffffffffffffffffffffffffffffffffffffff168273ffffffffffffffffffffffffffffffffffffffff16036109a45760006040517f89c62b6400000000000000000000000000000000000000000000000000000000815260040161099b9190611cc2565b60405180910390fd5b600360008373ffffffffffffffffffffffffffffffffffffffff1673ffffffffffffffffffffffffffffffffffffffff168152602001908152602001600020549050919050565b6109f3610ed0565b6109fd6000611313565b565b6000600660009054906101000a900473ffffffffffffffffffffffffffffffffffffffff16905090565b606060018054610a3890612183565b80601f0160208091040260200160405190810160405280929190818152602001828054610a6490612183565b8015610ab15780601f10610a8657610100808354040283529160200191610ab1565b820191906000526020600020905b815481529060010190602001808311610a9457829003601f168201915b5050505050905090565b610acd610ac6610eb6565b83836113d9565b5050565b610ad9610ed0565b6000600960006101000a81548160ff021916908315150217905550565b610b018484846106f8565b610b0d84848484611548565b50505050565b6060600073ffffffffffffffffffffffffffffffffffffffff16610b3683610f75565b73ffffffffffffffffffffffffffffffffffffffff1603610b8c576040517f08c379a0000000000000000000000000000000000000000000000000000000008152600401610b8390612263565b60405180910390fd5b600860008381526020019081526020016000208054610baa90612183565b80601f0160208091040260200160405190810160405280929190818152602001828054610bd690612183565b8015610c235780601f10610bf857610100808354040283529160200191610c23565b820191906000526020600020905b815481529060010190602001808311610c0657829003601f168201915b50505050509050919050565b60075481565b610c3d610ed0565b6001600960006101000a81548160ff021916908315150217905550565b600960009054906101000a900460ff1681565b6000600560008473ffffffffffffffffffffffffffffffffffffffff1673ffffffffffffffffffffffffffffffffffffffff16815260200190815260200160002060008373ffffffffffffffffffffffffffffffffffffffff1673ffffffffffffffffffffffffffffffffffffffff16815260200190815260200160002060009054906101000a900460ff16905092915050565b610d09610ed0565b600073ffffffffffffffffffffffffffffffffffffffff168173ffffffffffffffffffffffffffffffffffffffff1603610d7b5760006040517f1e4fbdf7000000000000000000000000000000000000000000000000000000008152600401610d729190611cc2565b60405180910390fd5b610d8481611313565b50565b60007f01ffc9a7000000000000000000000000000000000000000000000000000000007bffffffffffffffffffffffffffffffffffffffffffffffffffffffff1916827bffffffffffffffffffffffffffffffffffffffffffffffffffffffff1916149050919050565b600080610dfd83610f75565b9050600073ffffffffffffffffffffffffffffffffffffffff168173ffffffffffffffffffffffffffffffffffffffff1603610e7057826040517f7e273289000000000000000000000000000000000000000000000000000000008152600401610e679190611d58565b60405180910390fd5b80915050919050565b60006004600083815260200190815260200160002060009054906101000a900473ffffffffffffffffffffffffffffffffffffffff169050919050565b600033905090565b610ecb83838360016116ff565b505050565b610ed8610eb6565b73ffffffffffffffffffffffffffffffffffffffff16610ef66109ff565b73ffffffffffffffffffffffffffffffffffffffff1614610f5557610f19610eb6565b6040517f118cdaa7000000000000000000000000000000000000000000000000000000008152600401610f4c9190611cc2565b60405180910390fd5b565b610f718282604051806020016040528060008152506118c4565b5050565b60006002600083815260200190815260200160002060009054906101000a900473ffffffffffffffffffffffffffffffffffffffff169050919050565b600080610fbe84610f75565b9050600073ffffffffffffffffffffffffffffffffffffffff168373ffffffffffffffffffffffffffffffffffffffff161461100057610fff8184866118e0565b5b600073ffffffffffffffffffffffffffffffffffffffff168173ffffffffffffffffffffffffffffffffffffffff1614611091576110426000856000806116ff565b6001600360008373ffffffffffffffffffffffffffffffffffffffff1673ffffffffffffffffffffffffffffffffffffffff168152602001908152602001600020600082825403925050819055505b600073ffffffffffffffffffffffffffffffffffffffff168573ffffffffffffffffffffffffffffffffffffffff1614611114576001600360008773ffffffffffffffffffffffffffffffffffffffff1673ffffffffffffffffffffffffffffffffffffffff168152602001908152602001600020600082825401925050819055505b846002600086815260200190815260200160002060006101000a81548173ffffffffffffffffffffffffffffffffffffffff021916908373ffffffffffffffffffffffffffffffffffffffff160217905550838573ffffffffffffffffffffffffffffffffffffffff168273ffffffffffffffffffffffffffffffffffffffff167fddf252ad1be2c89b69c2b068fc378daa952ba7f163c4a11628f55a4df523b3ef60405160405180910390a4809150509392505050565b60008073ffffffffffffffffffffffffffffffffffffffff168373ffffffffffffffffffffffffffffffffffffffff161415801561128457508273ffffffffffffffffffffffffffffffffffffffff168473ffffffffffffffffffffffffffffffffffffffff16148061124557506112448484610c6d565b5b8061128357508273ffffffffffffffffffffffffffffffffffffffff1661126b83610e79565b73ffffffffffffffffffffffffffffffffffffffff16145b5b90509392505050565b600061129c6000836000610fb2565b9050600073ffffffffffffffffffffffffffffffffffffffff168173ffffffffffffffffffffffffffffffffffffffff160361130f57816040517f7e2732890000000000000000000000000000000000000000000000000000000081526004016113069190611d58565b60405180910390fd5b5050565b6000600660009054906101000a900473ffffffffffffffffffffffffffffffffffffffff16905081600660006101000a81548173ffffffffffffffffffffffffffffffffffffffff021916908373ffffffffffffffffffffffffffffffffffffffff1602179055508173ffffffffffffffffffffffffffffffffffffffff168173ffffffffffffffffffffffffffffffffffffffff167f8be0079c531659141344cd1fd0a4f28419497f9722a3daafe3b4186f6b6457e060405160405180910390a35050565b600073ffffffffffffffffffffffffffffffffffffffff168273ffffffffffffffffffffffffffffffffffffffff160361144a57816040517f5b08ba180000000000000000000000000000000000000000000000000000000081526004016114419190611cc2565b60405180910390fd5b80600560008573ffffffffffffffffffffffffffffffffffffffff1673ffffffffffffffffffffffffffffffffffffffff16815260200190815260200160002060008473ffffffffffffffffffffffffffffffffffffffff1673ffffffffffffffffffffffffffffffffffffffff16815260200190815260200160002060006101000a81548160ff0219169083151502179055508173ffffffffffffffffffffffffffffffffffffffff168373ffffffffffffffffffffffffffffffffffffffff167f17307eab39ab6107e8899845ad3d59bd9653f200f220920489ca2b5937696c318360405161153b9190611b51565b60405180910390a3505050565b60008373ffffffffffffffffffffffffffffffffffffffff163b11156116f9578273ffffffffffffffffffffffffffffffffffffffff1663150b7a0261158c610eb6565b8685856040518563ffffffff1660e01b81526004016115ae9493929190612665565b6020604051808303816000875af19250505080156115ea57506040513d601f19601f820116820180604052508101906115e791906126c6565b60015b61166e573d806000811461161a576040519150601f19603f3d011682016040523d82523d6000602084013e61161f565b606091505b50600081510361166657836040517f64a0ae9200000000000000000000000000000000000000000000000000000000815260040161165d9190611cc2565b60405180910390fd5b805181602001fd5b63150b7a0260e01b7bffffffffffffffffffffffffffffffffffffffffffffffffffffffff1916817bffffffffffffffffffffffffffffffffffffffffffffffffffffffff1916146116f757836040517f64a0ae920000000000000000000000000000000000000000000000000000000081526004016116ee9190611cc2565b60405180910390fd5b505b50505050565b80806117385750600073ffffffffffffffffffffffffffffffffffffffff168273ffffffffffffffffffffffffffffffffffffffff1614155b1561186c57600061174884610df1565b9050600073ffffffffffffffffffffffffffffffffffffffff168373ffffffffffffffffffffffffffffffffffffffff16141580156117b357508273ffffffffffffffffffffffffffffffffffffffff168173ffffffffffffffffffffffffffffffffffffffff1614155b80156117c657506117c48184610c6d565b155b1561180857826040517fa9fbf51f0000000000000000000000000000000000000000000000000000000081526004016117ff9190611cc2565b60405180910390fd5b811561186a57838573ffffffffffffffffffffffffffffffffffffffff168273ffffffffffffffffffffffffffffffffffffffff167f8c5be1e5ebec7d5bd14f71427d1e84f3dd0314c0f7b2291e5b200ac8c7c3b92560405160405180910390a45b505b836004600085815260200190815260200160002060006101000a81548173ffffffffffffffffffffffffffffffffffffffff021916908373ffffffffffffffffffffffffffffffffffffffff16021790555050505050565b6118ce83836119a4565b6118db6000848484611548565b505050565b6118eb8383836111cc565b61199f57600073ffffffffffffffffffffffffffffffffffffffff168373ffffffffffffffffffffffffffffffffffffffff160361196057806040517f7e2732890000000000000000000000000000000000000000000000000000000081526004016119579190611d58565b60405180910390fd5b81816040517f177e802f0000000000000000000000000000000000000000000000000000000081526004016119969291906126f3565b60405180910390fd5b505050565b600073ffffffffffffffffffffffffffffffffffffffff168273ffffffffffffffffffffffffffffffffffffffff1603611a165760006040517f64a0ae92000000000000000000000000000000000000000000000000000000008152600401611a0d9190611cc2565b60405180910390fd5b6000611a2483836000610fb2565b9050600073ffffffffffffffffffffffffffffffffffffffff168173ffffffffffffffffffffffffffffffffffffffff1614611a985760006040517f73c6ac6e000000000000000000000000000000000000000000000000000000008152600401611a8f9190611cc2565b60405180910390fd5b505050565b6000604051905090565b600080fd5b600080fd5b60007fffffffff0000000000000000000000000000000000000000000000000000000082169050919050565b611ae681611ab1565b8114611af157600080fd5b50565b600081359050611b0381611add565b92915050565b600060208284031215611b1f57611b1e611aa7565b5b6000611b2d84828501611af4565b91505092915050565b60008115159050919050565b611b4b81611b36565b82525050565b6000602082019050611b666000830184611b42565b92915050565b600081519050919050565b600082825260208201905092915050565b60005b83811015611ba6578082015181840152602081019050611b8b565b60008484015250505050565b6000601f19601f8301169050919050565b6000611bce82611b6c565b611bd88185611b77565b9350611be8818560208601611b88565b611bf181611bb2565b840191505092915050565b60006020820190508181036000830152611c168184611bc3565b905092915050565b6000819050919050565b611c3181611c1e565b8114611c3c57600080fd5b50565b600081359050611c4e81611c28565b92915050565b600060208284031215611c6a57611c69611aa7565b5b6000611c7884828501611c3f565b91505092915050565b600073ffffffffffffffffffffffffffffffffffffffff82169050919050565b6000611cac82611c81565b9050919050565b611cbc81611ca1565b82525050565b6000602082019050611cd76000830184611cb3565b92915050565b611ce681611ca1565b8114611cf157600080fd5b50565b600081359050611d0381611cdd565b92915050565b60008060408385031215611d2057611d1f611aa7565b5b6000611d2e85828601611cf4565b9250506020611d3f85828601611c3f565b9150509250929050565b611d5281611c1e565b82525050565b6000602082019050611d6d6000830184611d49565b92915050565b600080fd5b600080fd5b7f4e487b7100000000000000000000000000000000000000000000000000000000600052604160045260246000fd5b611db582611bb2565b810181811067ffffffffffffffff82111715611dd457611dd3611d7d565b5b80604052505050565b6000611de7611a9d565b9050611df38282611dac565b919050565b600067ffffffffffffffff821115611e1357611e12611d7d565b5b611e1c82611bb2565b9050602081019050919050565b82818337600083830152505050565b6000611e4b611e4684611df8565b611ddd565b905082815260208101848484011115611e6757611e66611d78565b5b611e72848285611e29565b509392505050565b600082601f830112611e8f57611e8e611d73565b5b8135611e9f848260208601611e38565b91505092915050565b60008060408385031215611ebf57611ebe611aa7565b5b6000611ecd85828601611c3f565b925050602083013567ffffffffffffffff811115611eee57611eed611aac565b5b611efa85828601611e7a565b9150509250929050565b600080600060608486031215611f1d57611f1c611aa7565b5b6000611f2b86828701611cf4565b9350506020611f3c86828701611cf4565b9250506040611f4d86828701611c3f565b9150509250925092565b600060208284031215611f6d57611f6c611aa7565b5b6000611f7b84828501611cf4565b91505092915050565b611f8d81611b36565b8114611f9857600080fd5b50565b600081359050611faa81611f84565b92915050565b60008060408385031215611fc757611fc6611aa7565b5b6000611fd585828601611cf4565b9250506020611fe685828601611f9b565b9150509250929050565b600067ffffffffffffffff82111561200b5761200a611d7d565b5b61201482611bb2565b9050602081019050919050565b600061203461202f84611ff0565b611ddd565b9050828152602081018484840111156120505761204f611d78565b5b61205b848285611e29565b509392505050565b600082601f83011261207857612077611d73565b5b8135612088848260208601612021565b91505092915050565b600080600080608085870312156120ab576120aa611aa7565b5b60006120b987828801611cf4565b94505060206120ca87828801611cf4565b93505060406120db87828801611c3f565b925050606085013567ffffffffffffffff8111156120fc576120fb611aac565b5b61210887828801612063565b91505092959194509250565b6000806040838503121561212b5761212a611aa7565b5b600061213985828601611cf4565b925050602061214a85828601611cf4565b9150509250929050565b7f4e487b7100000000000000000000000000000000000000000000000000000000600052602260045260246000fd5b6000600282049050600182168061219b57607f821691505b6020821081036121ae576121ad612154565b5b50919050565b7f4e487b7100000000000000000000000000000000000000000000000000000000600052601160045260246000fd5b60006121ee82611c1e565b91506121f983611c1e565b9250828201905080821115612211576122106121b4565b5b92915050565b7f546f6b656e20646f6573206e6f74206578697374000000000000000000000000600082015250565b600061224d601483611b77565b915061225882612217565b602082019050919050565b6000602082019050818103600083015261227c81612240565b9050919050565b60008190508160005260206000209050919050565b60006020601f8301049050919050565b600082821b905092915050565b6000600883026122e57fffffffffffffffffffffffffffffffffffffffffffffffffffffffffffffffff826122a8565b6122ef86836122a8565b95508019841693508086168417925050509392505050565b6000819050919050565b600061232c61232761232284611c1e565b612307565b611c1e565b9050919050565b6000819050919050565b61234683612311565b61235a61235282612333565b8484546122b5565b825550505050565b600090565b61236f612362565b61237a81848461233d565b505050565b5b8181101561239e57612393600082612367565b600181019050612380565b5050565b601f8211156123e3576123b481612283565b6123bd84612298565b810160208510156123cc578190505b6123e06123d885612298565b83018261237f565b50505b505050565b600082821c905092915050565b6000612406600019846008026123e8565b1980831691505092915050565b600061241f83836123f5565b9150826002028217905092915050565b61243882611b6c565b67ffffffffffffffff81111561245157612450611d7d565b5b61245b8254612183565b6124668282856123a2565b600060209050601f8311600181146124995760008415612487578287015190505b6124918582612413565b8655506124f9565b601f1984166124a786612283565b60005b828110156124cf578489015182556001820191506020850194506020810190506124aa565b868310156124ec57848901516124e8601f8916826123f5565b8355505b6001600288020188555050505b505050505050565b60006060820190506125166000830186611cb3565b6125236020830185611d49565b6125306040830184611cb3565b949350505050565b7f4e6f2066756e647320746f207769746864726177000000000000000000000000600082015250565b600061256e601483611b77565b915061257982612538565b602082019050919050565b6000602082019050818103600083015261259d81612561565b9050919050565b7f43616c6c6572206973206e6f74206f776e6572206e6f7220617070726f766564600082015250565b60006125da602083611b77565b91506125e5826125a4565b602082019050919050565b60006020820190508181036000830152612609816125cd565b9050919050565b600081519050919050565b600082825260208201905092915050565b600061263782612610565b612641818561261b565b9350612651818560208601611b88565b61265a81611bb2565b840191505092915050565b600060808201905061267a6000830187611cb3565b6126876020830186611cb3565b6126946040830185611d49565b81810360608301526126a6818461262c565b905095945050505050565b6000815190506126c081611add565b92915050565b6000602082840312156126dc576126db611aa7565b5b60006126ea848285016126b1565b91505092915050565b60006040820190506127086000830185611cb3565b6127156020830184611d49565b939250505056fea26469706673582212208240e7203ce6a7c180deea5910158f21bf4a385b34b9e1fde782ca633c6a5f2364736f6c634300081b0033",
    "linkReferences": {},
    "deployedLinkReferences": {}
}